{
  "_format": "hh-sol-artifact-1",
  "contractName": "NFTGatedEvent",
  "sourceName": "contracts/NFTGatedEvent.sol",
  "abi": [
    {
      "inputs": [
        {
          "internalType": "address",
          "name": "_nftContractAddress",
          "type": "address"
        }
      ],
      "stateMutability": "nonpayable",
      "type": "constructor"
    },
    {
      "inputs": [
        {
          "internalType": "address",
          "name": "owner",
          "type": "address"
        }
      ],
      "name": "OwnableInvalidOwner",
      "type": "error"
    },
    {
      "inputs": [
        {
          "internalType": "address",
          "name": "account",
          "type": "address"
        }
      ],
      "name": "OwnableUnauthorizedAccount",
      "type": "error"
    },
    {
      "anonymous": false,
      "inputs": [
        {
          "indexed": true,
          "internalType": "uint256",
          "name": "eventId",
          "type": "uint256"
        },
        {
          "indexed": true,
          "internalType": "string",
          "name": "title",
          "type": "string"
        },
        {
          "indexed": true,
          "internalType": "string",
          "name": "location",
          "type": "string"
        },
        {
          "indexed": false,
          "internalType": "uint256",
          "name": "closeDate",
          "type": "uint256"
        }
      ],
      "name": "EventCreated",
      "type": "event"
    },
    {
      "anonymous": false,
      "inputs": [
        {
          "indexed": true,
          "internalType": "address",
          "name": "previousOwner",
          "type": "address"
        },
        {
          "indexed": true,
          "internalType": "address",
          "name": "newOwner",
          "type": "address"
        }
      ],
      "name": "OwnershipTransferred",
      "type": "event"
    },
    {
      "anonymous": false,
      "inputs": [
        {
          "indexed": true,
          "internalType": "uint256",
          "name": "eventId",
          "type": "uint256"
        },
        {
          "indexed": true,
          "internalType": "address",
          "name": "user",
          "type": "address"
        }
      ],
      "name": "UserRegistered",
      "type": "event"
    },
    {
      "anonymous": false,
      "inputs": [
        {
          "indexed": true,
          "internalType": "uint256",
          "name": "eventId",
          "type": "uint256"
        },
        {
          "indexed": true,
          "internalType": "address",
          "name": "user",
          "type": "address"
        }
      ],
      "name": "UserRegistrationCancelled",
      "type": "event"
    },
    {
      "inputs": [
        {
          "internalType": "uint256",
          "name": "_eventId",
          "type": "uint256"
        }
      ],
      "name": "cancelRegistration",
      "outputs": [
        {
          "internalType": "bool",
          "name": "",
          "type": "bool"
        }
      ],
      "stateMutability": "nonpayable",
      "type": "function"
    },
    {
      "inputs": [
        {
          "internalType": "string",
          "name": "_title",
          "type": "string"
        },
        {
          "internalType": "string",
          "name": "_location",
          "type": "string"
        },
        {
          "internalType": "uint256",
          "name": "_closeDate",
          "type": "uint256"
        }
      ],
      "name": "createEvent",
      "outputs": [],
      "stateMutability": "nonpayable",
      "type": "function"
    },
    {
      "inputs": [
        {
          "internalType": "uint256",
          "name": "",
          "type": "uint256"
        }
      ],
      "name": "events",
      "outputs": [
        {
          "internalType": "uint256",
          "name": "eventId",
          "type": "uint256"
        },
        {
          "internalType": "string",
          "name": "title",
          "type": "string"
        },
        {
          "internalType": "string",
          "name": "location",
          "type": "string"
        },
        {
          "internalType": "uint256",
          "name": "closeDate",
          "type": "uint256"
        }
      ],
      "stateMutability": "view",
      "type": "function"
    },
    {
      "inputs": [
        {
          "internalType": "uint256",
          "name": "_eventId",
          "type": "uint256"
        }
      ],
      "name": "getEventDetails",
      "outputs": [
        {
          "internalType": "string",
          "name": "title",
          "type": "string"
        },
        {
          "internalType": "string",
          "name": "location",
          "type": "string"
        },
        {
          "internalType": "uint256",
          "name": "closeDate",
          "type": "uint256"
        }
      ],
      "stateMutability": "view",
      "type": "function"
    },
    {
      "inputs": [
        {
          "internalType": "uint256",
          "name": "_eventId",
          "type": "uint256"
        },
        {
          "internalType": "address",
          "name": "_user",
          "type": "address"
        }
      ],
      "name": "isRegistered",
      "outputs": [
        {
          "internalType": "bool",
          "name": "",
          "type": "bool"
        }
      ],
      "stateMutability": "view",
      "type": "function"
    },
    {
      "inputs": [],
      "name": "nftContract",
      "outputs": [
        {
          "internalType": "contract IERC721",
          "name": "",
          "type": "address"
        }
      ],
      "stateMutability": "view",
      "type": "function"
    },
    {
      "inputs": [],
      "name": "owner",
      "outputs": [
        {
          "internalType": "address",
          "name": "",
          "type": "address"
        }
      ],
      "stateMutability": "view",
      "type": "function"
    },
    {
      "inputs": [
        {
          "internalType": "uint256",
          "name": "_eventId",
          "type": "uint256"
        }
      ],
      "name": "registerForEvent",
      "outputs": [],
      "stateMutability": "nonpayable",
      "type": "function"
    },
    {
      "inputs": [],
      "name": "renounceOwnership",
      "outputs": [],
      "stateMutability": "nonpayable",
      "type": "function"
    },
    {
      "inputs": [],
      "name": "testZeroAddressCheck",
      "outputs": [],
      "stateMutability": "view",
      "type": "function"
    },
    {
      "inputs": [
        {
          "internalType": "address",
          "name": "newOwner",
          "type": "address"
        }
      ],
      "name": "transferOwnership",
      "outputs": [],
      "stateMutability": "nonpayable",
      "type": "function"
    }
  ],
  "bytecode": "0x60806040523480156200001157600080fd5b5060405162001ec638038062001ec6833981810160405281019062000037919062000235565b33600073ffffffffffffffffffffffffffffffffffffffff168173ffffffffffffffffffffffffffffffffffffffff1603620000ad5760006040517f1e4fbdf7000000000000000000000000000000000000000000000000000000008152600401620000a4919062000278565b60405180910390fd5b620000be816200010760201b60201c565b5080600260006101000a81548173ffffffffffffffffffffffffffffffffffffffff021916908373ffffffffffffffffffffffffffffffffffffffff1602179055505062000295565b60008060009054906101000a900473ffffffffffffffffffffffffffffffffffffffff169050816000806101000a81548173ffffffffffffffffffffffffffffffffffffffff021916908373ffffffffffffffffffffffffffffffffffffffff1602179055508173ffffffffffffffffffffffffffffffffffffffff168173ffffffffffffffffffffffffffffffffffffffff167f8be0079c531659141344cd1fd0a4f28419497f9722a3daafe3b4186f6b6457e060405160405180910390a35050565b600080fd5b600073ffffffffffffffffffffffffffffffffffffffff82169050919050565b6000620001fd82620001d0565b9050919050565b6200020f81620001f0565b81146200021b57600080fd5b50565b6000815190506200022f8162000204565b92915050565b6000602082840312156200024e576200024d620001cb565b5b60006200025e848285016200021e565b91505092915050565b6200027281620001f0565b82525050565b60006020820190506200028f600083018462000267565b92915050565b611c2180620002a56000396000f3fe608060405234801561001057600080fd5b50600436106100a95760003560e01c8063715018a611610071578063715018a6146101535780638da5cb5b1461015d578063b81f6e181461017b578063d56d229d146101ab578063ec38d5a0146101c9578063f2fde38b146101fb576100a9565b80630b791430146100ae57806327c465b0146100e1578063406db843146101115780635555fe171461012d5780636b1d3e4014610149575b600080fd5b6100c860048036038101906100c39190610f6f565b610217565b6040516100d8949392919061103b565b60405180910390f35b6100fb60048036038101906100f69190610f6f565b610357565b60405161010891906110a9565b60405180910390f35b61012b60048036038101906101269190610f6f565b61053c565b005b610147600480360381019061014291906111f9565b6107f9565b005b610151610a1e565b005b61015b610a8f565b005b610165610aa3565b60405161017291906112c5565b60405180910390f35b6101956004803603810190610190919061130c565b610acc565b6040516101a291906110a9565b60405180910390f35b6101b3610b87565b6040516101c091906113ab565b60405180910390f35b6101e360048036038101906101de9190610f6f565b610bad565b6040516101f2939291906113c6565b60405180910390f35b6102156004803603810190610210919061140b565b610d4c565b005b600360205280600052604060002060009150905080600001549080600101805461024090611467565b80601f016020809104026020016040519081016040528092919081815260200182805461026c90611467565b80156102b95780601f1061028e576101008083540402835291602001916102b9565b820191906000526020600020905b81548152906001019060200180831161029c57829003601f168201915b5050505050908060020180546102ce90611467565b80601f01602080910402602001604051908101604052809291908181526020018280546102fa90611467565b80156103475780601f1061031c57610100808354040283529160200191610347565b820191906000526020600020905b81548152906001019060200180831161032a57829003601f168201915b5050505050908060030154905084565b6000808211801561036a57506001548211155b6103a9576040517f08c379a00000000000000000000000000000000000000000000000000000000081526004016103a0906114e4565b60405180910390fd5b60006003600084815260200190815260200160002090508060040160003373ffffffffffffffffffffffffffffffffffffffff1673ffffffffffffffffffffffffffffffffffffffff16815260200190815260200160002060009054906101000a900460ff1661044e576040517f08c379a000000000000000000000000000000000000000000000000000000000815260040161044590611550565b60405180910390fd5b80600301544210610494576040517f08c379a000000000000000000000000000000000000000000000000000000000815260040161048b906115bc565b60405180910390fd5b60008160040160003373ffffffffffffffffffffffffffffffffffffffff1673ffffffffffffffffffffffffffffffffffffffff16815260200190815260200160002060006101000a81548160ff0219169083151502179055503373ffffffffffffffffffffffffffffffffffffffff16837f47e43553bbebb6c82ce3157eba4d56efe988c32bef8c40214b6856c59105273960405160405180910390a36001915050919050565b60008111801561054e57506001548111155b61058d576040517f08c379a0000000000000000000000000000000000000000000000000000000008152600401610584906114e4565b60405180910390fd5b6000600360008381526020019081526020016000209050806003015442106105ea576040517f08c379a00000000000000000000000000000000000000000000000000000000081526004016105e1906115bc565b60405180910390fd5b8060040160003373ffffffffffffffffffffffffffffffffffffffff1673ffffffffffffffffffffffffffffffffffffffff16815260200190815260200160002060009054906101000a900460ff1615610679576040517f08c379a000000000000000000000000000000000000000000000000000000000815260040161067090611628565b60405180910390fd5b6000600260009054906101000a900473ffffffffffffffffffffffffffffffffffffffff1673ffffffffffffffffffffffffffffffffffffffff166370a08231336040518263ffffffff1660e01b81526004016106d691906112c5565b602060405180830381865afa1580156106f3573d6000803e3d6000fd5b505050506040513d601f19601f82011682018060405250810190610717919061165d565b11610757576040517f08c379a000000000000000000000000000000000000000000000000000000000815260040161074e906116d6565b60405180910390fd5b60018160040160003373ffffffffffffffffffffffffffffffffffffffff1673ffffffffffffffffffffffffffffffffffffffff16815260200190815260200160002060006101000a81548160ff0219169083151502179055503373ffffffffffffffffffffffffffffffffffffffff16827fb442efe467d2ef30e62927a3cae0afcbc799a8a0944d8a143332e4e5e51cee5d60405160405180910390a35050565b610801610dd2565b600073ffffffffffffffffffffffffffffffffffffffff163373ffffffffffffffffffffffffffffffffffffffff1603610870576040517f08c379a000000000000000000000000000000000000000000000000000000000815260040161086790611742565b60405180910390fd5b60008351116108b4576040517f08c379a00000000000000000000000000000000000000000000000000000000081526004016108ab906117ae565b60405180910390fd5b60008251116108f8576040517f08c379a00000000000000000000000000000000000000000000000000000000081526004016108ef9061181a565b60405180910390fd5b6000811161093b576040517f08c379a000000000000000000000000000000000000000000000000000000000815260040161093290611886565b60405180910390fd5b60006001805461094b91906118d5565b905060006003600083815260200190815260200160002090508181600001819055508481600101908161097e9190611aab565b50838160020190816109909190611aab565b5082816003018190555060018060008282546109ac91906118d5565b92505081905550836040516109c19190611bb9565b6040518091039020856040516109d79190611bb9565b6040518091039020837fc3c73c6e241661d903c3cd6d17266ff5d3b495e57afa5898c2c429e4b7d4747086604051610a0f9190611bd0565b60405180910390a45050505050565b600073ffffffffffffffffffffffffffffffffffffffff163373ffffffffffffffffffffffffffffffffffffffff1603610a8d576040517f08c379a0000000000000000000000000000000000000000000000000000000008152600401610a8490611742565b60405180910390fd5b565b610a97610dd2565b610aa16000610e59565b565b60008060009054906101000a900473ffffffffffffffffffffffffffffffffffffffff16905090565b60008083118015610adf57506001548311155b610b1e576040517f08c379a0000000000000000000000000000000000000000000000000000000008152600401610b15906114e4565b60405180910390fd5b6003600084815260200190815260200160002060040160008373ffffffffffffffffffffffffffffffffffffffff1673ffffffffffffffffffffffffffffffffffffffff16815260200190815260200160002060009054906101000a900460ff16905092915050565b600260009054906101000a900473ffffffffffffffffffffffffffffffffffffffff1681565b60608060008084118015610bc357506001548411155b610c02576040517f08c379a0000000000000000000000000000000000000000000000000000000008152600401610bf9906114e4565b60405180910390fd5b600060036000868152602001908152602001600020905080600101816002018260030154828054610c3290611467565b80601f0160208091040260200160405190810160405280929190818152602001828054610c5e90611467565b8015610cab5780601f10610c8057610100808354040283529160200191610cab565b820191906000526020600020905b815481529060010190602001808311610c8e57829003601f168201915b50505050509250818054610cbe90611467565b80601f0160208091040260200160405190810160405280929190818152602001828054610cea90611467565b8015610d375780601f10610d0c57610100808354040283529160200191610d37565b820191906000526020600020905b815481529060010190602001808311610d1a57829003601f168201915b50505050509150935093509350509193909250565b610d54610dd2565b600073ffffffffffffffffffffffffffffffffffffffff168173ffffffffffffffffffffffffffffffffffffffff1603610dc65760006040517f1e4fbdf7000000000000000000000000000000000000000000000000000000008152600401610dbd91906112c5565b60405180910390fd5b610dcf81610e59565b50565b610dda610f1d565b73ffffffffffffffffffffffffffffffffffffffff16610df8610aa3565b73ffffffffffffffffffffffffffffffffffffffff1614610e5757610e1b610f1d565b6040517f118cdaa7000000000000000000000000000000000000000000000000000000008152600401610e4e91906112c5565b60405180910390fd5b565b60008060009054906101000a900473ffffffffffffffffffffffffffffffffffffffff169050816000806101000a81548173ffffffffffffffffffffffffffffffffffffffff021916908373ffffffffffffffffffffffffffffffffffffffff1602179055508173ffffffffffffffffffffffffffffffffffffffff168173ffffffffffffffffffffffffffffffffffffffff167f8be0079c531659141344cd1fd0a4f28419497f9722a3daafe3b4186f6b6457e060405160405180910390a35050565b600033905090565b6000604051905090565b600080fd5b600080fd5b6000819050919050565b610f4c81610f39565b8114610f5757600080fd5b50565b600081359050610f6981610f43565b92915050565b600060208284031215610f8557610f84610f2f565b5b6000610f9384828501610f5a565b91505092915050565b610fa581610f39565b82525050565b600081519050919050565b600082825260208201905092915050565b60005b83811015610fe5578082015181840152602081019050610fca565b60008484015250505050565b6000601f19601f8301169050919050565b600061100d82610fab565b6110178185610fb6565b9350611027818560208601610fc7565b61103081610ff1565b840191505092915050565b60006080820190506110506000830187610f9c565b81810360208301526110628186611002565b905081810360408301526110768185611002565b90506110856060830184610f9c565b95945050505050565b60008115159050919050565b6110a38161108e565b82525050565b60006020820190506110be600083018461109a565b92915050565b600080fd5b600080fd5b7f4e487b7100000000000000000000000000000000000000000000000000000000600052604160045260246000fd5b61110682610ff1565b810181811067ffffffffffffffff82111715611125576111246110ce565b5b80604052505050565b6000611138610f25565b905061114482826110fd565b919050565b600067ffffffffffffffff821115611164576111636110ce565b5b61116d82610ff1565b9050602081019050919050565b82818337600083830152505050565b600061119c61119784611149565b61112e565b9050828152602081018484840111156111b8576111b76110c9565b5b6111c384828561117a565b509392505050565b600082601f8301126111e0576111df6110c4565b5b81356111f0848260208601611189565b91505092915050565b60008060006060848603121561121257611211610f2f565b5b600084013567ffffffffffffffff8111156112305761122f610f34565b5b61123c868287016111cb565b935050602084013567ffffffffffffffff81111561125d5761125c610f34565b5b611269868287016111cb565b925050604061127a86828701610f5a565b9150509250925092565b600073ffffffffffffffffffffffffffffffffffffffff82169050919050565b60006112af82611284565b9050919050565b6112bf816112a4565b82525050565b60006020820190506112da60008301846112b6565b92915050565b6112e9816112a4565b81146112f457600080fd5b50565b600081359050611306816112e0565b92915050565b6000806040838503121561132357611322610f2f565b5b600061133185828601610f5a565b9250506020611342858286016112f7565b9150509250929050565b6000819050919050565b600061137161136c61136784611284565b61134c565b611284565b9050919050565b600061138382611356565b9050919050565b600061139582611378565b9050919050565b6113a58161138a565b82525050565b60006020820190506113c0600083018461139c565b92915050565b600060608201905081810360008301526113e08186611002565b905081810360208301526113f48185611002565b90506114036040830184610f9c565b949350505050565b60006020828403121561142157611420610f2f565b5b600061142f848285016112f7565b91505092915050565b7f4e487b7100000000000000000000000000000000000000000000000000000000600052602260045260246000fd5b6000600282049050600182168061147f57607f821691505b60208210810361149257611491611438565b5b50919050565b7f496e76616c6964206576656e7420494400000000000000000000000000000000600082015250565b60006114ce601083610fb6565b91506114d982611498565b602082019050919050565b600060208201905081810360008301526114fd816114c1565b9050919050565b7f4e6f74207265676973746572656420666f722074686973206576656e74000000600082015250565b600061153a601d83610fb6565b915061154582611504565b602082019050919050565b600060208201905081810360008301526115698161152d565b9050919050565b7f4576656e7420726567697374726174696f6e20636c6f73656400000000000000600082015250565b60006115a6601983610fb6565b91506115b182611570565b602082019050919050565b600060208201905081810360008301526115d581611599565b9050919050565b7f416c726561647920726567697374657265640000000000000000000000000000600082015250565b6000611612601283610fb6565b915061161d826115dc565b602082019050919050565b6000602082019050818103600083015261164181611605565b9050919050565b60008151905061165781610f43565b92915050565b60006020828403121561167357611672610f2f565b5b600061168184828501611648565b91505092915050565b7f4d757374206f776e20616e204e465420746f2072656769737465720000000000600082015250565b60006116c0601b83610fb6565b91506116cb8261168a565b602082019050919050565b600060208201905081810360008301526116ef816116b3565b9050919050565b7f61646472657373207a65726f20666f756e640000000000000000000000000000600082015250565b600061172c601283610fb6565b9150611737826116f6565b602082019050919050565b6000602082019050818103600083015261175b8161171f565b9050919050565b7f5469746c652063616e6e6f7420626520656d7074790000000000000000000000600082015250565b6000611798601583610fb6565b91506117a382611762565b602082019050919050565b600060208201905081810360008301526117c78161178b565b9050919050565b7f4c6f636174696f6e2063616e6e6f7420626520656d7074790000000000000000600082015250565b6000611804601883610fb6565b915061180f826117ce565b602082019050919050565b60006020820190508181036000830152611833816117f7565b9050919050565b7f496e70757420636c6f7365206461746500000000000000000000000000000000600082015250565b6000611870601083610fb6565b915061187b8261183a565b602082019050919050565b6000602082019050818103600083015261189f81611863565b9050919050565b7f4e487b7100000000000000000000000000000000000000000000000000000000600052601160045260246000fd5b60006118e082610f39565b91506118eb83610f39565b9250828201905080821115611903576119026118a6565b5b92915050565b60008190508160005260206000209050919050565b60006020601f8301049050919050565b600082821b905092915050565b60006008830261196b7fffffffffffffffffffffffffffffffffffffffffffffffffffffffffffffffff8261192e565b611975868361192e565b95508019841693508086168417925050509392505050565b60006119a86119a361199e84610f39565b61134c565b610f39565b9050919050565b6000819050919050565b6119c28361198d565b6119d66119ce826119af565b84845461193b565b825550505050565b600090565b6119eb6119de565b6119f68184846119b9565b505050565b5b81811015611a1a57611a0f6000826119e3565b6001810190506119fc565b5050565b601f821115611a5f57611a3081611909565b611a398461191e565b81016020851015611a48578190505b611a5c611a548561191e565b8301826119fb565b50505b505050565b600082821c905092915050565b6000611a8260001984600802611a64565b1980831691505092915050565b6000611a9b8383611a71565b9150826002028217905092915050565b611ab482610fab565b67ffffffffffffffff811115611acd57611acc6110ce565b5b611ad78254611467565b611ae2828285611a1e565b600060209050601f831160018114611b155760008415611b03578287015190505b611b0d8582611a8f565b865550611b75565b601f198416611b2386611909565b60005b82811015611b4b57848901518255600182019150602085019450602081019050611b26565b86831015611b685784890151611b64601f891682611a71565b8355505b6001600288020188555050505b505050505050565b600081905092915050565b6000611b9382610fab565b611b9d8185611b7d565b9350611bad818560208601610fc7565b80840191505092915050565b6000611bc58284611b88565b915081905092915050565b6000602082019050611be56000830184610f9c565b9291505056fea26469706673582212200c14863bfc21a63fc0281d361c2331c489b3183874d70b23b55d0b9ba6241eb964736f6c63430008180033",
  "linkReferences": {},
  "deployedLinkReferences": {}
}